:020000040000FA
:040000008831A92D6D
:040008008831E12D2D
:02000E00CF0819
:10001000031D0B280800F93000000000000000005C
:1000200000000000000000000000000000000000D0
:10003000FF3E031D0C28000000000000000000002F
:1000400000000000000000000000000000000000B0
:10005000CF0B0B280800AF010130B000B101B20195
:100060000830310232080318372803193928B21F23
:100070005E28AF3520000E1B3F2823002F142200DE
:100080000D12230030082E05B300B401B308031984
:10009000B40AB501B4080319B50A351C5128220069
:1000A0000E1523003518562822000E1122000D16B9
:1000B0002300B035B10A0319B20A30282F08B10065
:1000C0000800A901A501A60108302605A800A80876
:1000D000031D0800A535A30DA90D24082902031C42
:1000E0007328A9002514A60A642821082100DE002F
:1000F000230022082100DF00230023082100E00064
:10010000230024082100E100230025082100E2004B
:10011000230026082100E3002200A801A9012300F2
:1001200020082200A600A70108002008073CA00024
:100130002008A3000430A40061202908A200A235F1
:10014000043020020318C0280330A300A4012208B1
:10015000FF390319AF28A335A40DFF3EA8282309B2
:100160002100EC0523002108A3002208FF39031910
:10017000BC28A335FF3EB62823082100EC04080064
:100180002008A3000430A40061202908A000033047
:10019000A300A4012208FF390319D228A335A40D16
:1001A000FF3ECB2823092100ED0523002108A300F1
:1001B0002208FF390319DF28A335FF3ED928230879
:1001C0002100ED0408009518E32822006B082300A5
:1001D0009100220893009513151523108B1B2314EF
:1001E0008B1355309600AA309600951415112318DC
:1001F0008B17231C8B1308009518FC2825089100E9
:10020000951315141308A600080022000C142300EF
:1002100020082100E800230021082100E90008004F
:100220002708003A03193029013A03193329033A00
:1002300003193629013A03193929073A03193C29C8
:10024000013A03193F29033A03194229013A0319D4
:1002500045290F3A03194829013A03194B29080087
:10026000B730A8000800A030A8000800C730A800D8
:100270000800E630A8000800F030A800080076303A
:10028000A80008007730A8000800A230A8000800E5
:10029000F730A8000800F630A800080022006E0819
:1002A000003C6F080318031DEF1B08002300210802
:1002B00085002008840000082200EB006808850003
:1002C0006708840000082300A200E32021088500BD
:1002D0002008840000082200EB00840AEB0A0319BE
:1002E000800A84036B088000E70A0319E80AEE0815
:1002F0000319EF03EE034E292008003C21080318E0
:10030000031DA11B080023088500220884000008A3
:10031000A500FC202608A40022006F0885006E08B6
:10032000840023002408800023088500220884001C
:100330000008A400840AA40A0319800A840324087C
:1003400080002200EE0A0319EF0A2300A008031917
:10035000A103A0037C292200EA012100580A031905
:10036000CF2900308500723084005808043E84078D
:100370008008031DCF29FF30D80003302300A000E0
:100380001730A100F330A2007530A300B730A400ED
:10039000B530A5005530A60075200130EA002100D7
:1003A000580A031DF1292200E801E9010230680220
:1003B00069080318DD290319DF29E91FF129003035
:1003C0008500723084006808043E840780080319A1
:1003D000ED2968082100D800F129E80A0319E90A83
:1003E000D6292100580A031D0C2A570A03196A2A24
:1003F000FF30D70003302300A000B330A100B73096
:10040000A200A3011730A400F330A5007530A600A8
:1004100075200130EA006A2A570A0319302A003091
:10042000850072308400570884078008031D302A35
:10043000FF30D7002200EA08031D302A03302300D2
:10044000A000F330A1006330A200D330A300B73086
:10045000A400B530A5005530A60075200130EA0093
:100460002100570A031D512A2200E801E901043046
:100470006802690803183E2A0319402AE91F512A15
:1004800000308500723084006808840780080319F2
:100490004D2A68082100D700512AE80A0319E90A01
:1004A000372A2100570A031D6A2A2200EA08031D81
:1004B0006A2A03302300A000B330A100B730A200A5
:1004C000A301F330A4006330A500D330A60075204B
:1004D0000130EA002100CE012200EE01EF01E80127
:1004E000E9010430680269080318782A03197A2A96
:1004F000E91FBF2A00308500723084006E0884072F
:1005000080080319B22A210057082200680603193F
:100510006908031DAB2A6E082300A0000230A10069
:1005200095202200EF080319982A2300A001A72A8A
:1005300001302300A10022006E08FF390319A42A0C
:100540002300A135FF3E9D2A23002108A00020089A
:100550002100CE04B72A6E082300A0000130A100BC
:100560009520B72A6E082300A000A1019520220043
:10057000E80A0319E90AEE0A0319EF0A712AE801E9
:10058000E9010230680269080318C82A0319CA2A57
:10059000E91F0F2B00308500723084006E0884073D
:1005A00080080319022B210058082200680603194D
:1005B0006908031DFB2A6E082300A0000230A10079
:1005C00095202200EF080319E82A2300A001F72A4A
:1005D00001302300A10022006E08FF390319F42A1C
:1005E0002300A135FF3EED2A23002108A0002008AA
:1005F0002100CE04072B6E082300A0000130A100CB
:100600009520072B6E082300A000A1019520220051
:10061000E80A0319E90AEE0A0319EF0AC12AE801F8
:10062000E9010230680269080318182B03191A2B14
:10063000E91F622B00308500723084006E08840749
:1006400080080319552B00308500D6308400033014
:10065000840768088407800803194E2B6E0823005E
:10066000A0000230A10095202200EF0803193B2BC7
:100670002300A0014A2B01302300A10022006E08B4
:10068000FF390319472B2300A135FF3E402B2300E0
:100690002108A00020082100CE045A2B6E08230058
:1006A000A0000130A10095205A2B6E082300A00065
:1006B000A10195202200E80A0319E90AEE0A0319AC
:1006C000EF0A112B01302100C8002200EA080319AB
:1006D0000800E8302300A0000330A1000521080035
:1006E000EC012300A001A10122006908ED00EE0148
:1006F000EC1908006A1C852B6D082300A00703185D
:10070000A10A22006E082300A1072200EA0C0310B0
:10071000ED0DEE0DEC0A782B2300A601A701A6191A
:10072000080022006D1C972B6C082300A7072200ED
:10073000ED0C0310EC0D2300A60A8F2B6608003A7F
:100740000319B82B073A0319BB2B063A0319BF2B21
:10075000073A0319C32B033A0319C72B063A0319A7
:10076000CB2B073A0319CF2B063A0319D32BD72BE0
:10077000E701E80108000130E700E8010800023065
:10078000E700E80108000330E700E8010800043052
:10079000E700E80108000530E700E801080006303E
:1007A000E700E80108000730E700E8010800FF3033
:1007B000E700E801E803080002302200E200E3015C
:1007C0000030E8007A30E7000530EE00EF0101303C
:1007D0002300A1006230A0004E2108000530E9008E
:1007E0006308EA007023230020082200E6002300AB
:1007F00021082200E5006608203EE4000318E50A0F
:1008000000302300A200A0302200EB006308EC00BF
:100810000530ED008C23270822006B07E70023003A
:1008200022082200E8000318E80A0530EE00EF0174
:1008300001302300A1006430A0004E2108000530E3
:10084000E9006608EA007023230020082200EB007C
:10085000230021082200E8006B08203EE70003186F
:10086000E80A00302300A500A030A400220066089A
:10087000EC000530ED008C23270824072200EE0051
:10088000230025082200EF000318EF0A053023009B
:10089000A000A1010130A3006730A2007C21080064
:1008A0006308E8006408E9006508EA006608EB00F0
:1008B0006708003C0318702C6B0885006A088400E8
:1008C000EA0A0319EB0A0008EE00690885006808C7
:1008D0008400E80A0319E90A6E088000E703582C2F
:1008E0006308EE006408EF000800E7080319A02D74
:1008F0006703031D842C0030850072308400660875
:10090000840701308000A02D6708023A031D912C56
:100910000030850072308400660884070030800053
:10092000A02D00306602031CC02C043066020318A0
:10093000C02C6708033A0319A12C073A0319A12C0C
:10094000A02D00308500723084006608840780087E
:100950000319A02D01302300A000F330A100DB30EB
:10096000A2002200660A2300A70010212808A30085
:10097000A401A501A601752066082100D700A02DBD
:1009800004306602031CF22C063066020318F22CB7
:100990006708033A0319D02C073A0319D02CA02D6D
:1009A00000308500723084006608840780080319CF
:1009B000A02D01302300A0001730A1007D30A2003F
:1009C0000430220066022300A700A70A102128088D
:1009D000A300A401A501A601752004306602210030
:1009E000D800A02D06306602031CA02D0830660238
:1009F0000318A02D06306602E8006708033A0319C1
:100A0000082D073A0319302D013A0319822DA02D24
:100A1000003085007230840066088407800803195E
:100A2000A02D01302300A0005730A1005B30A200B0
:100A30002200680A2300A70010212808A300B7306D
:100A4000A400B330A500A601752000308500D63083
:100A50008400033084076808840701308000A02DDB
:100A600000308500D630840003308407680884078E
:100A7000800803195A2D01302300A0005730A1002F
:100A80005B30A2002200680A2300A700102128087A
:100A9000A300B730A4005330A500A6007520003095
:100AA0008500D6308400033084076808840700304E
:100AB0008000A02D00308500723084006608840715
:100AC00080080319A02D01302300A0005730A10099
:100AD0005B30A2002200680A2300A700102128082A
:100AE000A300B730A400B330A500A60175200030E4
:100AF0008500D630840003308407680884070130FD
:100B00008000A02D01302300A0005730A1005B30F1
:100B1000A2002200680A2300A70010212808A300D1
:100B2000B730A4005330A500A60075200030850022
:100B3000D6308400033084076808840700308000C2
:100B4000AB210800E701EA01E80108306805E90087
:100B5000E908031D0800EA35E50DE70D66086702A0
:100B6000031CB42DE7006A14E80AA52D6008013AB9
:100B70000319C42D043A0319CE2D063A0319D62DB4
:100B8000073A03190B2E282E17302100C900F13027
:100B9000CA00B330CB002200B201282E6108113AFE
:100BA0000319D62D6108123A031D282EB208031D21
:100BB000DC2D7A0AB200EE2D6108113A031DE62DF4
:100BC0003208013C0318E62DB203EE2D6108123AFB
:100BD000031DEE2D10303202031CB20A2100C901A0
:100BE00022003208E5000A30E600A2256A08230048
:100BF000A700102128082100CA0022003208230083
:100C0000A3000A30A40061202908A70010212808A9
:100C10002100CB00282E6108103A031D282EB208AF
:100C20000319242E3203FA00DC2303302300A00032
:100C30001730A100F130A200A3017630A400573094
:100C4000A5005530A60075200130E200E301080040
:100C50002100CC01CD010130C8002200E201E301F6
:100C600008006008013A03193F2E043A03194E2E7A
:100C7000063A0319562E073A0319692EA42E00309E
:100C80008500A03084003108EC000530ED008C2395
:100C90002708840700082200B200A42E6108113A38
:100CA0000319562E6108123A031DA42E6108113A49
:100CB000031D602E3208003C0318602EB203A42EE0
:100CC0006108123A031DA42E7F303202031CB20ABF
:100CD000A42E6108103A031DA42E32082100D6006C
:100CE00000302200E900A030E8003108EC000530B7
:100CF000ED008C23270822006807E3006908E40060
:100D00000318E40A0030E600D630E5000530E700BD
:100D100050243108E300EE2303302300A000D33039
:100D2000A1002200310A2300A70010212808A200F8
:100D3000A3017630A400F330A5002530A60075206D
:100D40000130E300E40108003208E2006208E50037
:100D50006430E600A2256A082300A70010212808B5
:100D60002100C900220062082300A3006430A4000F
:100D7000612029082200E2006208E5000A30E6004E
:100D8000A2256A082300A700102128082100CA0014
:100D9000220062082300A3000A30A4006120290871
:100DA000A700102128082100CB00CC01CD01013083
:100DB000C8002200E301E40108006008013A0319B9
:100DC000EB2E033A0319F32E013A0319032F073AC6
:100DD00003191B2F232F76302100C900F330CA00DE
:100DE0002530CB00232FA80A0319A90A2908013CA2
:100DF000031DFC2E2808903C0318232FA91B232F2A
:100E0000A801A901232F6108E6009E236708E200DC
:100E10006808E3006308803AE40080306402031D40
:100E2000132F00306202031C232F6208B10005302B
:100E3000E400E50108006108103A031D232F01308A
:100E4000E400E501080022002808643C2908031892
:100E5000031DA91B302FAA302100CC00CD00332F59
:100E60002100CC01CD010130C8002200E401E501E0
:100E700008006008013A0319472F033A0319542F59
:100E8000013A0319762F073A0319AF2FB72F153000
:100E90002100C900B730CA00E530CB00EE01EF01F8
:100EA0002200A801A901B72FA80A0319A90A290835
:100EB000013C031D5D2F2808903C0318632FA91BDC
:100EC000632FA801A9012100EE0A0319EF0A0730D8
:100ED0006F02031D6D2FD0306E02031CB72FEF1B66
:100EE000B72F03302200E400E50108006108113A41
:100EF00003197E2F6108123A031D822F0430E4008B
:100F0000E50108006108E6009E236708E200680822
:100F1000E3006308803AE60080306602031D922FEA
:100F200000306202031CB72F6208E6001F24033062
:100F3000A000D330A1002200620A2300A7001021E4
:100F40002808A200A301A401A501A6017520E601BD
:100F5000E701752401302200E400E5010800610882
:100F6000103A031DB72F0130E400E501080022000C
:100F70002808643C29080318031DA91BC42F5530F9
:100F80002100CC00CD00C72F2100CC01CD010130C4
:100F9000C8002200E401E50108005E08023A0319D6
:100FA000D52F013A0319D92FFA2FA80A0319A90A34
:100FB000FA2F5F08103A031DE32FA601A7010230A4
:100FC000E200E30108005F08E6009E236708E000F6
:100FD0006808E1006108803AE40080306402031D83
:100FE000F32F00306002031CFA2F6008E600043083
:100FF000E700752421006C08CC006D08CD002200AC
:10100000A6088831031D0728A708031950282908B6
:10101000033C031D0D282808203C03181828A91B91
:101020001828A801A901A6080319A703A603552893
:101030002908023C031D1E282808BC3C0318272849
:10104000A91B27282100C901CA01CB01552829085D
:10105000013C031D2D282808903C03183928A91BA2
:10106000392821006108C9006208CA006308CB0062
:1010700055282908013C031D3F2828082C3C03184B
:101080004828A91B48282100C901CA01CB015528BD
:1010900021005E08C9005F08CA006008CB0055281F
:1010A00008302100C900CA00CB0001302100C8006F
:1010B0002200E201E30108003308013A03196D2818
:1010C000033A03197828013A03198328073A0319C8
:1010D0008E28013A03199928A4285C08DE005D08CF
:1010E000DF008031CD276208DE006308DF000800E2
:1010F0005C08E0005D08E100803139276408DE000B
:101100006508DF0008005C08E0005D08E100803150
:10111000DD266408DE006508DF0008005C08E000EA
:101120005D08E1008031B6256208DE006308DF005B
:1011300008005C08E0005D08E100803131266308AA
:10114000DE006408DF000800DE01DF010800580847
:10115000DC005908DD005C205E08DA005F08DB0077
:10116000DA088831031DB728DB08031908005A087C
:10117000B3000130DC00DD015C205E08DA005F08AE
:10118000DB008831B02802302200CD00CE010030D3
:10119000EF007A30EE0005302300A000A1010130FD
:1011A000A3004D30A20080317C210800FA014630B6
:1011B000FB004730FC004830FD004930FE000800CD
:1011C00000308500A03084005108EC000530ED00AF
:1011D00080318C23270884072200510880000030CA
:1011E0008500A03084005108EC000530ED008C2310
:1011F00027088407840AFF30800000308500A03073
:10120000840022005108EC000530ED008C232708F3
:10121000840702308407FF3080002200D301D4010C
:1012200002305302540888310318182903191A2967
:10123000D41F080000308500A03084005108EC0065
:101240000530ED0080318C232708840703308407A4
:1012500022005308840700308000D30A0319D40AFF
:10126000883110298C1451082100EA00220052080C
:101270002100EB0008002200A408031D4229A50854
:1012800003195229A4080319A503A40B5229A50880
:10129000031D52291E30A400A5010530D8003408D2
:1012A000D900A7200230D800D901A7200800D7080C
:1012B000031965295608B400E830A4000330A500DE
:1012C000D8005608D900A7200800B401A401A50140
:1012D0000430D8005608D900A7200800CC08031D08
:1012E00083292300A5018031FC202608123A883189
:1012F000031D83290130A5008031FC202608373AE0
:1013000088310319C8292200CF01D00108304F02CB
:10131000500803188D2903198F29D01F9D294F08C4
:10132000D1005008D200E0204F08E3008031EE23C6
:10133000CF0A0319D00A88318629D6208031DC23D0
:10134000CD01CE0105304D024E0888310318AA297F
:101350000319AC29CE1FBA290C14C830CF00803134
:1013600007200C10C830CF000720CD0A0319CE0A81
:101370008831A229EB0112302300A2008031E32042
:1013800001302200EB0037302300A200E3200800E8
:101390002200CD01CE0108304D024E080318D2299B
:1013A0000319D429CE1FDE294D08E60080311F2401
:1013B0002200CD0A0319CE0A8831CB29C3200800A8
:1013C0007A084C06031D0800CE01CF0108304E02FA
:1013D0004F080318ED290319EF29CF1F080000302B
:1013E0008500A03084004E08EC000530ED0080310F
:1013F0008C2327088407000822004D068831031D2E
:101400002F2A0030E400D630E3000030D100A030B5
:10141000D0004E08EC000530ED0080318C23270809
:1014200022005007E5005108E6000318E60A0530DF
:10143000E700502401302300A000D330A100220097
:101440004E0A2300A70010212808A200A301A4012E
:10145000A501A6017520E601E70175240800CE0A62
:101460000319CF0AE6297A084C06031D080001304B
:101470004D02031C4E2A05304D0203184E2ACE0899
:1014800003190800CF014D08003EE6000318CF0AFB
:10149000E6030330E70080317524080024304D0254
:1014A000031C662A26304D020318662ACE0803194B
:1014B0000800CF014D08043EE6000318CF0A24308F
:1014C000E6020330E7008031752408003C304D020D
:1014D000031C08003E304D0203180800CE08031913
:1014E0007E2ACF014D08063EE6000318CF0A3C30A5
:1014F000E6020330E700803175240800CF014D0873
:10150000063EE6000318CF0A3C30E6020530E7004D
:101510008031752408007A084C06031D08007B08FA
:101520004D06031D9D2A04304E0203189D2A4E08C5
:10153000E6000330E700803175247C0822004D0668
:101540008831031DAE2A02304E020318AE2A043041
:101550004E07E6000330E700803175242200CF01FA
:10156000D00102304F02500888310318B92A0319FC
:10157000BB2AD01F0800003085007A308400033079
:1015800084074F08840700084D06031DD42A06303F
:101590004F07E600CE080319D02A0330E700D22A0D
:1015A0000530E700803175242200CF0A0319D00AE4
:1015B0008831B12A23009D1CDF2A1D121D1622002E
:1015C0002B082A06031DE62AD001080000308500FA
:1015D000203084002B0884070008CC00AB0A3F3081
:1015E000AB05F0304C05CD004D08F03A031D142B2F
:1015F0004C08F83A03190C2B023A03190C2B013A48
:1016000003190C2B073A03190C2B0C3A03190F2B57
:10161000073A0319122BDA2A4C08D00008000130CF
:10162000AF00DA2AAF01DA2A80304C05CE00CF01B4
:10163000CE080319CF0ACF08031D422BAF01AE011C
:101640004C08AC00F0304C05D1005108A03A031909
:101650003C2B603A03193C2B103A03193C2B503AAF
:1016600003193F2B103A03193F2B203A03193F2B44
:10167000503A03193F2B3F2B0130AD00DA2A0230DC
:10168000AD00DA2AAF08031DDA2AAC080319DA2AFA
:1016900000308500E63084002E08AE0A84074C082E
:1016A00080002D082E02031CDA2AAE010230D10080
:1016B000D201322122002C08D00008004C08D000B2
:1016C0004D08D1004F08003C0318712B51088500CC
:1016D00050088400D00A0319D10A4E088000CF03B5
:1016E000622B4C08D2004D08D30008002000911452
:1016F000911221009110911623001F129F159F1027
:101700001F101E139E161E129E111E111E109D17D5
:101710001D139D161D169C011F309B0008000030F4
:101720008500723084004C0884074D088000080052
:101730002200B501B601B701B801B901BA01BB0178
:10174000BC01BD01BE01BF01C001C101C201C30195
:10175000C401C501C6017A302100990022009D17FD
:101760001D1520008C0120308D008E0138302100A5
:101770008C008D0170308E0023008C018D018E0154
:101780002100951324008C150C168C1622008E1443
:101790000E140C15B0010030CD00C830CC00CE01C5
:1017A0000730CF005E2301302100C8002000E00197
:1017B0002100951295111511951415148B160B1106
:1017C0008B170B17762301302200C7006430CF003F
:1017D000803107202000E001E00888310319EC2B5C
:1017E00000306105031D002C00306205031D002C34
:1017F00001306305031D002C003064050319062C1D
:1018000001302200CC006E218831092C2200CC014D
:101810006E2100302200E400D630E3000030E60004
:10182000A030E5000530E700803150248030C8004A
:10183000C901CA01CB0108304A024B08883103189C
:10184000232C0319252CCB1F512C4A08CC00480807
:10185000CE004908CF00D001D10120006508220048
:10186000CE05200066082200CF0520006708220070
:10187000D005200068082200D105D20100304E04B6
:101880004F0450045104FF390319D20ACD01D20884
:101890000319CD0A8F23C936C80CCA0A0319CB0A0B
:1018A0001B2CE601E701803175242000E0012000B7
:1018B000E008883103197D2C61082200B500200062
:1018C00062082200B600200063082200B700200052
:1018D00064082200B800200065082200B90020003A
:1018E00066082200BA00200067082200BB00200022
:1018F00068082200BC002000E001FF080319652DE4
:10190000FF012100E808031D882CE9080319922C27
:10191000E8080319E903E80B922CE908031D922C4F
:1019200022000C102100EA08031D992CEB08031972
:10193000A32CEA080319EB03EA0BA32CEB08031D05
:10194000A32C22008C103B21C5080319A92CC50328
:10195000082D3D083506CC003E083606CD003F0870
:101960003706CE0040083806CF004C084D044E0420
:101970004F04FF390319002D0130D000D101D201ED
:10198000D301D401D5011330540255080318CA2CD1
:101990000319CC2CD51FFE2C4C085005031DDC2C44
:1019A0004D085105031DDC2C4E085205031DDC2C8F
:1019B0004F0853050319F62C35085005031DEC2C70
:1019C00036085105031DEC2C37085205031DEC2C7D
:1019D000380853050319F22C5408D6000130D700FB
:1019E0005721F62C5408D600D7015721D035D10DF8
:1019F000D20DD30DD40A0319D50AC32C3230C50039
:101A00003508BD003608BE003708BF003808C000E2
:101A1000C60803190D2DC603652D41083906CC00F3
:101A200042083A06CD00CC08031D192DCD08031934
:101A30005D2D8030CE00CF01D001D10108305002A1
:101A400051080318252D0319272DD11F5B2D4C0894
:101A50004E05031D2F2D4D084F050319532D4E081C
:101A6000D2004F08D300D401D50139085205031D17
:101A7000452D3A085305031D452D3B085405031D0C
:101A8000452D3C08550503194D2D5008E600013041
:101A9000E700803175248831532D5008E60002306C
:101AA000E700803175242200CF36CE0CD00A03190E
:101AB000D10A88311E2DC830C6003908C1003A0845
:101AC000C2003B08C3003C08C400DA225008CA0028
:101AD000F0304A05CB004B08803A0319792D103AB3
:101AE0000319842D203A0319922D703A03199F2D62
:101AF000572C0F304A05CC00210066082200CD008B
:101B0000CE0133228831572C0F304A05CC002100FA
:101B100066082200CD00210067082200CE00332293
:101B20008831572C0F304A05CC002100660822006E
:101B3000CD00210067082200CE008B22572C0F30E9
:101B40004A05CC00210066082200CD00E021883142
:101B5000572C2000E0012100C801FF01E401E5014C
:101B60002200AA01AB01AC01AD01AE01AF01210021
:101B7000E801E901EA01EB012000E001E9012100AF
:101B8000C801CF012000E0012100C8012000E001D0
:101B90002100C8012000E0012100C801DB01EE01A5
:101BA000EF0101302200B300A001A101A201A301B5
:101BB000A401A501B401A601A701A801A9018831CA
:101BC000982B0B1D8F2E0530200095000130FF0053
:101BD0000B1122003008003A0319F52D013A0319C0
:101BE0001A2E033A0319292E8F2E8E140E140C155B
:101BF0002100C80803190B2E4E08D5004D08D4004B
:101C00004C08D3004B08D2004A08D1004908D00044
:101C10004808CF00C80122000D13210050092300FD
:101C2000AE0080312B2022000D178E100130B00045
:101C300088318F2E8E140D13210051092300AE0020
:101C400080312B2022000D170E100230B000883199
:101C50008F2E8E118E150E140D138D138E132100E1
:101C600055082300AE0080312B203108AA00AB01BB
:101C7000AC01AD012A082000EE0023002B08200053
:101C8000EF0023002C08F0002D08F100210053087C
:101C90002300AE002B203108AA00AB01AC01AD013E
:101CA0002A082000EA0023002B082000EB00230074
:101CB0002C082000EC0023002D082000ED008C1DD6
:101CC0006C140C1EEC148C1E6C15E0088831031D7E
:101CD0007D2E7108E8007008E7006F08E6006E08C6
:101CE000E5006D08E4006C08E3006B08E2006A0898
:101CF000E1006908E0000130E00021005408230001
:101D0000AE0080312B20210052092300AE002B2091
:101D100022000D178D178E170C118D12B0012000A7
:101D2000911E090023001908AA0022002A0A230094
:101D3000AB003F30AB0522002B0823002B06883177
:101D40000319AF2E003085002030840022002A08BD
:101D5000840723002A0880002B082200AA00200004
:041D600091120900D3
:020000040001F9
:02000E00A4FF4D
:02001000FFDE11
:00000001FF
